:100000000C9434000C9449000C9449000C94490061
:100010000C9449000C9449000C9449000C9449003C
:100020000C9449000C9449000C9449000C9449002C
:100030000C9449000C9449000C9449000C9449001C
:100040000C9449000C9449000C9449000C9449000C
:100050000C9449000C9449000C9449000C944900FC
:100060000C9449000C94490011241FBECFEFD8E036
:10007000DEBFCDBF11E0A0E0B1E0E2EEF3E002C0F0
:1000800005900D92A030B107D9F70E9451010C9450
:10009000EF010C9400002F923F924F925F926F926B
:1000A0007F928F929F92AF92BF92CF92DF92EF9208
:1000B000FF920F931F93CF93DF931F92CDB7DEB7BD
:1000C000E82F8901F82DFF7DFD3441F42230310500
:1000D00068F4412C512C3201439404C0412C512C22
:1000E000320143940115110581F4A1C0412C512C1A
:1000F0003201439481E090E0440C551C661C771C4F
:10010000019680179107C1F7EDCF81E090E04C0197
:1001100002C0880C991C4A95E2F78982809402C03B
:10012000880F991F6A95E2F7982E9094B82FE12CCA
:10013000F12CA3019201242C2A20332E3B20A42F42
:10014000AC215D21222D332D4A2F60E070E080E04C
:1001500090E0A0E00E94E301E9F0E434B1F028F47B
:10016000E23449F0E33461F02EC0E33649F0E4367E
:1001700061F0E23641F585B19981892B85B923C0BB
:1001800088B19981892B88B91EC08BB19981892B3F
:100190008BB919C0E434A1F028F4E23449F0E33417
:1001A00059F011C0E33641F0E43651F0E23659F42B
:1001B00085B1882185B907C088B1882188B903C075
:1001C0008BB188218BB9E434D1F028F4E23449F0C2
:1001D000E33471F01AC0E33659F0E43681F0E236C8
:1001E000A1F485B1892185B985B18B2B85B90DC065
:1001F00088B1892188B988B18B2B88B906C08BB1A9
:1002000089218BB98BB18B2B8BB9FD3429F4769472
:1002100067945794479404C0440C551C661C771C83
:100220008FEFE81AF80AE016F10609F082CF0F9076
:10023000DF91CF911F910F91FF90EF90DF90CF90C2
:10024000BF90AF909F908F907F906F905F904F90F6
:100250003F902F90089521E030E0F90102C0EE0FA9
:10026000FF1F6A95E2F7BF015E2F609502C0220F63
:10027000331F8A95E2F7322F309598E0442324F417
:100280008BB1852B8BB903C08BB186238BB98BB116
:1002900083238BB98BB1822B8BB9440F915071F7AB
:1002A00008953C9A3B9A3A9A3D98399A509A5198B7
:1002B000529A539A0F2EFDE48F2EF02D0F2EF5E556
:1002C000AF2EF02DB12CC12CD12CE12CF12C00E063
:1002D00010E028E030E044E062E083E40E944B005C
:1002E000439A4398589A2FEF88E09DE3215080402D
:1002F0009040E1F700C00000589846E063E082E0DB
:100300000E942B01589A87E893E10197F1F700C00A
:100310000000589842E063E082E00E942B0140E038
:1003200063E082E00E942B0140E063E082E00E94F3
:100330002B0140E063E082E00E942B014FEF63E07D
:1003400082E00E942B01589AD8E0C0E058984BE018
:1003500063E082E00E942B0140E063E082E00E94C3
:100360002B0140E063E082E00E942B0140E063E06B
:1003700082E00E942B0140E063E082E00E942B01BA
:100380004D2F5C2FA12C89B186958170AA0CA82ACB
:100390005A9A5A9841505109B1F7589A0F2EFDE4D4
:1003A0008F2EF02DB12CC12CD12CE12CF12C00E0A2
:1003B00010E02D2F3C2F44E062E083E40E944B00CC
:1003C000439A4398C3CF0024A7FD00942A17300511
:1003D0004005500560057005800590050895F89466
:0203E000FFCF4D
:00000001FF
